:020000040800F2
:1000000000C000202D03000811030008130300089E
:10001000150300081703000819030008000000007A
:100020000000000000000000000000001B030008AA
:100030001D030008000000001F0300082103000842
:1000400075030008750300087503000875030008B0
:1000500075030008750300087503000875030008A0
:100060007503000875030008750300087503000890
:100070007503000875030008750300087503000880
:100080007503000875030008750300087503000870
:100090007503000875030008750300087503000860
:1000A0007503000875030008750300087503000850
:1000B0007503000875030008750300087503000840
:1000C0007503000875030008750300087503000830
:1000D0007503000875030008750300087503000820
:1000E0007503000875030008750300087503000810
:1000F0007503000875030008750300087503000800
:1001000075030008750300087503000875030008EF
:1001100075030008750300087503000875030008DF
:1001200075030008750300087503000875030008CF
:1001300000000000000000000000000000000000BF
:1001400000000000000000000000000000000000AF
:10015000000000000000000000000000000000009F
:10016000000000000000000000000000000000008F
:10017000000000000000000000000000000000007F
:10018000000000000000000000000000000000006F
:10019000000000000000000000000000000000005F
:1001A000000000000000000000000000000000004F
:1001B000000000000000000000000000000000003F
:1001C000000000000000000000000000000000002F
:1001D000000000000000000000000000000000001F
:0401E0005FF8E0F1F3
:1001E40010B5054C237833B9044B13B10448AFF36D
:1001F40000800123237010BD3C0400200000000097
:10020400AC0C000808B5034B1BB103490348AFF31A
:10021400008008BD0000000040040020AC0C000871
:1002240082B00A4B9A6942F020029A619A6902F0FC
:1002340020020092009A9A6942F004029A619B6932
:1002440003F004030193019B02B0704700100240C5
:1002540072B6FEE700B591B02822002106A800F08E
:1002640061FC0023019302930393049305930122F9
:1002740006924FF4803307930A9202220D920E9352
:100284004FF4E0130F9306A800F032F980B90F235E
:10029400019302210291002303934FF4806204929C
:1002A400059301A800F064FB20B911B05DF804FBCC
:1002B400FFF7CEFFFFF7CCFF08B500F081F8FFF79A
:1002C400C9FFFFF7ADFFFEE782B00E4B9A6942F01B
:1002D40001029A619A6902F001020092009ADA69B5
:1002E40042F08052DA61DB6903F080530193019B91
:1002F400054A536823F0E06343F00073536002B08F
:10030400704700BF0010024000000140FEE7FEE716
:10031400FEE7FEE7FEE770477047704708B500F058
:1003240061F808BD704700000C480D490D4A0023D0
:1003340002E0D458C4500433C4188C42F9D30A4A96
:100344000A4C002301E013600432A242FBD3FFF7FE
:10035400E9FF00F0C3FBFFF7AFFF70470000002088
:100364003C040020F80C00083C0400206004002039
:10037400FEE7000010B504460E4B18784FF47A736C
:10038400B3FBF0F30C4A1068B0FBF3F000F086F80E
:1003940068B90F2C01D901200AE0002221464FF050
:1003A400FF3000F043F8054B1C60002000E0012002
:1003B40010BD00BF04000020000000200800002041
:1003C40008B5074A136843F010031360032000F0D4
:1003D4001BF80F20FFF7CEFFFFF776FF002008BDC4
:1003E40000200240034A1168034B1B780B4413603E
:1003F400704700BF5804002004000020014B186817
:10040400704700BF58040020074AD36823F4E06310
:100414001B041B0C000200F4E060034343F0BF63C1
:1004240043F40033D360704700ED00E000B5194B8E
:10043400DB68C3F30223C3F1070CBCF1040F28BF2C
:100444004FF0040C03F1040EBEF1060F18D9033B60
:100454004FF0FF3E0EFA0CFC21EA0C0199400EFA13
:1004640003F322EA0303194300280BDB0901C9B291
:1004740000F1604000F5614080F800135DF804FB72
:100484000023E5E700F00F000901C9B2024B19543B
:10049400F4E700BF00ED00E014ED00E00138B0F136
:1004A400807F0BD24FF0E0235861054AF02182F897
:1004B40023100020986107221A61704701207047B9
:1004C40000ED00E082B0084B1B68084AA2FB03233E
:1004D4005B0A00FB03F3019300BF019B5A1E0192C8
:1004E400002BF9D102B0704700000020D34D6210F8
:1004F400002800F0F18170B582B00446036813F05F
:10050400010F2CD0994B5B6803F00C03042B1DD016
:10051400964B5B6803F00C03082B12D06368B3F5A9
:10052400803F41D0002B55D103F1804303F50433C0
:100534001A6822F480321A601A6822F480221A603F
:1005440037E08A4B5B6813F4803FE7D0874B1B6826
:1005540013F4003F03D06368002B00F0BF812368CD
:1005640013F0020F75D0814B5B6813F00C0F5FD052
:100574007E4B5B6803F00C03082B54D02369002BDB
:1005840000F08A807A4B01221A60FFF737FF054694
:10059400764B1B6813F0020F75D1FFF72FFF401B3A
:1005A4000228F5D903209EE1704A136843F480338E
:1005B4001360636843B3FFF721FF05466B4B1B6869
:1005C40013F4003FCBD1FFF719FF401B6428F5D982
:1005D400032088E1B3F5A02F09D0644B1A6822F4F4
:1005E40080321A601A6822F480221A60E1E703F16B
:1005F4008043A3F53C331A6842F480221A601A68D7
:1006040042F480321A60D4E7FFF7F8FE0546574BF0
:100614001B6813F4003FA2D0FFF7F0FE401B6428D0
:10062400F5D903205FE1514B5B6813F4803FA5D1FA
:100634004E4B1B6813F0020F03D02369012B40F0CB
:100644004F814A4A136823F0F803616943EAC103FE
:100654001360236813F0080F33D0A369002B5CD018
:10066400434B0122C3F88024FFF7C8FE05463F4BE5
:100674005B6A13F0020F21D1FFF7C0FE401B022872
:10068400F5D903202FE1394A136823F0F80361698F
:1006940043EAC1031360DCE7354B00221A60FFF71D
:1006A400ADFE0546314B1B6813F0020FD1D0FFF7A6
:1006B400A5FE401B0228F5D9032014E10120FFF711
:1006C40001FF236813F0040F00F09680274BDB69C9
:1006D40013F0805F34D1254BDA6942F08052DA613D
:1006E400DB6903F080530193019B0125214B1B68B7
:1006F40013F4807F26D0E368012B3DD0002B53D127
:1007040003F1804303F504331A6A22F001021A62EA
:100714001A6A22F004021A6233E0154B0022C3F86D
:100724008024FFF76BFE0546104B5B6A13F0020F43
:10073400C7D0FFF763FE401B0228F5D90320D2E09F
:100744000025D3E70B4A136843F480731360FFF763
:1007540055FE0646074B1B6813F4807FCBD1FFF789
:100764004DFE801B6428F5D90320BCE00010024034
:1007740000004242007000405F4A136A43F00103E4
:100784001362E36833B3FFF739FE06465A4B1B6A1C
:1007940013F0020F2FD1FFF731FE801B41F2883393
:1007A4009842F3D903209EE0052B09D0524B1A6AD4
:1007B40022F001021A621A6A22F004021A62E0E7C5
:1007C4004D4B1A6A42F004021A621A6A42F001029C
:1007D4001A62D6E7FFF712FE0646474B1B6A13F070
:1007E400020F08D0FFF70AFE801B41F288339842BB
:1007F400F3D9032077E0E5B9E369002B72D03E4AD0
:10080400526802F00C02082A56D0022B17D03B4B38
:1008140000221A66FFF7F2FD0446374B1B6813F0FB
:10082400007F47D0FFF7EAFD001B0228F5D903201B
:1008340059E0314AD36923F08053D361DCE72F4B6D
:1008440000221A66FFF7DAFD05462B4B1B6813F0EE
:10085400007F06D0FFF7D2FD401B0228F5D9032004
:1008640041E0236AB3F5803F1AD023494B6823F44F
:100874007413226A606A024313434B601F4B0122C4
:100884001A66FFF7BBFD04461B4B1B6813F0007F81
:100894000ED1FFF7B3FD001B0228F5D9032022E097
:1008A400154A536823F40033A1680B435360DCE713
:1008B400002018E0002016E0012B16D00E4B5B68D8
:1008C40003F48031226A914211D103F47013626AF5
:1008D40093420ED1002006E001207047012002E07F
:1008E400012000E0002002B070BD0120FBE70120E0
:1008F400F9E70120F7E700BF001002400000424280
:1009040086B0174B0FCB0DF1180C0CE90F0040F219
:100914000123ADF80430134B5B6803F00C02082A82
:1009240002D0114806B07047C3F3834218326A44B8
:1009340012F8100C13F4803F0DD00A4B5B68C3F31C
:10094400404318336B4413F8143C074A02FB00F08D
:10095400B0FBF3F0E6E7054B03FB00F0E2E700BF72
:10096400D40C00080010024000127A0000093D0077
:10097400002800F0A08070B50D460446524B1B6859
:1009840003F007038B420BD24F4A136823F007038B
:100994000B431360136803F007038B4240F08D8010
:1009A400236813F0020F17D013F0040F04D0474A42
:1009B400536843F4E0635360236813F0080F04D0D2
:1009C400424A536843F460535360404A536823F0E7
:1009D400F003A1680B435360236813F0010F31D077
:1009E4006368012B20D0022B25D0384A126812F0FC
:1009F400020F64D035494A6822F0030213434B6066
:100A0400FFF7FCFC0646314B5B6803F00C0362689D
:100A1400B3EB820F16D0FFF7F1FC801B41F2883351
:100A24009842F0D9032045E0284A126812F4003FA6
:100A3400E0D101203EE0254A126812F0007FD9D1AE
:100A4400012037E0204B1B6803F00703AB420AD9AF
:100A54001D4A136823F007032B431360136803F044
:100A64000703AB422DD1236813F0040F06D0174AB5
:100A7400536823F4E063E1680B435360236813F085
:100A8400080F07D0114A536823F46053216943EADD
:100A9400C1035360FFF734FF0C4B5B68C3F30313CC
:100AA4000B4AD35CD8400B4B18600B4B1868FFF70C
:100AB40061FC002070BD012070470120FAE701208D
:100AC400F8E70120F6E700BF0020024000100240D2
:100AD400C40C0008000000200800002070B50D4E72
:100AE4000D4D761BB61006D0002455F8043B013496
:100AF4009847A642F9D1094E094D00F0D5F8761B66
:100B0400B61006D0002455F8043B01349847A64299
:100B1400F9D170BDEC0C0008EC0C0008F40C0008D2
:100B2400EC0C0008830730B548D0541E002A3FD08F
:100B34000346CAB201E0013C3AD303F8012B9D07F6
:100B4400F9D1032C2DD9CDB245EA05250F2C45EA60
:100B5400054536D9A4F1100222F00F0C03F1200E42
:100B6400E6444FEA121C03F1100242E9045542E93B
:100B7400025510327245F8D10CF1010214F00C0F39
:100B840003EB021204F00F0C13D0ACF1040323F0B6
:100B940003030433134442F8045B9342FBD10CF087
:100BA40003042CB1CAB21C4403F8012B9C42FBD1B0
:100BB40030BD64461346002CF4D1F9E703461446CD
:100BC400BFE71A46A446E0E7024B13B1024800F01F
:100BD40005B8704700000000ED0B00080023014633
:100BE4001A46184600F01AB838B5084B084D5B1B76
:100BF4009C1007D0043B1D44013C55F80439984728
:100C0400002CF9D1BDE8384000F054B8F80C0008C5
:100C1400F40C0008704700BF704700BF2DE9F0478F
:100C2400DFF87CA00646DAF8000098460F469146A5
:100C3400FFF7F0FF1B4B1B68D3F8484124B36568EA
:100C44001F2D26DC5EB96B1C0235DAF800006360E8
:100C540044F82570FFF7E0FF0020BDE8F08701238A
:100C640004EB8501C1F88890D4F88821AB401A437D
:100C7400022EC4F88821C1F80881E4D1D4F88C216B
:100C84001343C4F88C31DEE703F5A674C3F8484176
:100C9400D5E7DAF80000FFF7BFFF4FF0FF30DCE7DD
:100CA40038040020E80C0008F8B500BFF8BC08BC04
:100CB4009E467047F8B500BFF8BC08BC9E46704716
:100CC40000000000000000000102030406070809F8
:100CD40002030405060708090A0B0C0D0E0F101079
:080CE4000000000010000020D8
:080CEC00CD0B0008090200080D
:040CF400E50100080E
:100CF8000024F400010000001000000000000000C3
:100D080000000000FC02002064030020CC03002047
:100D180000000000000000000000000000000000CB
:100D280000000000000000000000000000000000BB
:100D380000000000000000000000000000000000AB
:100D4800000000000000000000000000000000009B
:100D5800000000000000000000000000000000008B
:100D6800000000000000000000000000000000007B
:100D7800000000000000000000000000000000006B
:100D8800000000000000000000000000000000005B
:100D9800000000000000000000000000000000004B
:100DA800000000000000000001000000000000003A
:100DB8000E33CDAB34126DE6ECDE05000B000000FF
:100DC800000000000000000000000000000000001B
:100DD800000000000000000000000000000000000B
:100DE80000000000000000000000000000000000FB
:100DF80000000000000000000000000000000000EB
:0C11280000000000000000005C0400203B
:040000050800032DBF
:00000001FF
